:100000000C9434000C943E000C943E000C943E0082
:100010000C943E000C943E000C943E000C943E0068
:100020000C943E000C943E000C943E000C943E0058
:100030000C943E000C943E000C943E000C943E0048
:100040000C943E000C943E000C943E000C943E0038
:100050000C943E000C943E000C943E000C943E0028
:100060000C943E000C943E0011241FBECFEFD8E04C
:10007000DEBFCDBF0E9440000C9466000C940000CF
:100080001092C50087E68093C40088E18093C10088
:10009000E2ECF0E080818E608083808180628083EA
:1000A00090E0E0ECF0E0A6ECB0E021E0290F8081E8
:1000B00085FFFDCF9C933FEF81EE94E0315080406F
:1000C0009040E1F700C00000922FEFCFF894FFCFEF
:00000001FF
